:020000041000EA
:1000000000B5324B212058609868022188439860DF
:10001000D860186158612E4B002199600221596106
:100020000121F02299502B49196001219960352056
:1000300000F044F80222904214D00621196600F024
:1000400034F8196E01211966002018661A6600F04E
:100050002CF8196E196E196E052000F02FF8012189
:100060000842F9D1002199601B49196000215960AB
:100070001A491B48016001219960EB211966A021F2
:10008000196600F012F800219960164914480160C1
:100090000121996001BC002800D000471248134993
:1000A000086003C880F30888084703B5996A0420EC
:1000B0000142FBD001200142F8D103BD02B5186610
:1000C0001866FFF7F2FF186E186E02BD00000240BE
:1000D000000000180000070000035F00212200005C
:1000E000F4000018222000A00001001008ED00E03C
:1000F00000000000000000000000000074B24E7A12
:1001000000200420F7010010C3010010C5010010F9
:10011000C1010010C1010010C1010010C101001097
:10012000C1010010C1010010C1010010C701001081
:10013000C1010010C1010010C9010010CB01001065
:10014000CD010010CD010010CD010010CD01001037
:10015000CD010010CD010010CD010010CD01001027
:10016000CD010010CD010010CD010010CD01001017
:10017000CD010010CD010010CD010010CD01001007
:10018000CD010010CD010010CD010010CD010010F7
:10019000CD010010CD010010CD010010CD010010E7
:1001A000CD010010CD010010CD010010CD010010D7
:1001B000CD010010CD010010CD010010CD010010C7
:1001C00000BE00BE00BE00BE00BE00BE00F04BF888
:1001D000103800BEF2EB8871B4730010D4730010B5
:1001E0003402001090A31AE700202149086006C8D5
:1001F00081F3088810471F48006800282FD10DA4FC
:100200000ECC002902D000F012F8F9E71A491B4A77
:10021000002000E001C19142FCD1194988471949E9
:1002200088471949884700BEFDE701C901C29A42C3
:10023000FBD37047D4730010C0000020800400205E
:100240009477001000000420000004209477001030
:1002500000100420001004200000000070470B482C
:1002600002F0F0FF0047EFF30580C0B270470000D6
:1002700008ED00E0000000D0800400200012002003
:10028000E91300100D030010D91400105756000098
:1002900006005250ABB36053787100100600525004
:1002A000861C030288710010060052505422A29D41
:1002B0009071001005005250DE65F46894770010CC
:1002C000F8B5C04610B5064C2378002B07D1054B76
:1002D000002B02D0044800E000BF0123237010BDB2
:1002E0008807002000000000A06E0010044B10B52D
:1002F000002B03D00349044800E000BF10BDC046F6
:10030000000000008C070020A06E0010F0B5CE4663
:10031000474680B583B000AF04F0A0F8FA20C000D3
:1003200000F080FC2C4803F0E5FF2C4B38003B60CC
:100330002B4B7B6006F04CFDC3B20600381D98467F
:1003400006F046FD0400274DC3B23100280099464F
:1003500004F078F82100280004F074F86A46341993
:100360000734E308DB00D31A9D4643466D46002B55
:1003700004D032003900684603F054FE4B46002B8F
:1003800012D005234246AB5443464A460133DBB202
:10039000012A09D00622EA5443464A460233DBB218
:1003A000032A01D10432EA5400240F4E07E0295DEC
:1003B000300004F047F8642000F034FC01342800D9
:1003C00006F006FDA042F2D80020BD4603B0C0BC36
:1003D000B946B046F0BDC046A06E001063617272AF
:1003E00005060708A86E0010B06E001070B5EFF398
:1003F000108C72B60D4D2B68002BFCD0BFF35F8FB5
:100400000724CB08C618C05C01230C40A3401C0085
:100410000440034207D103433370BFF35F8F2C6066
:100420008CF3108870BD100001F058F82C0100D03A
:10043000F8B54746CE46884680B5EFF3108C72B6C5
:10044000214D2C68002CFCD0BFF35F8F9A422CD832
:10045000D4080727055D061901241740BC402C422B
:100460001FD007210127894609E0D408055D061938
:100470004C4639001440A1400C00294211D00132F1
:100480009342F2D201204042BFF35F8F00220E4B15
:100490001A608CF3108800280FDBC0BCB946B04648
:1004A000F8BD2C4310003470EEE7BFF35F8F0023DC
:1004B0002B608CF31088012040424346002BECD087
:1004C000089801F00BF8C0462C0100D0024B1868C8
:1004D0008007C00F7047C04600C006400021044B93
:1004E000044ABFF35F8F02C39342FAD17047C046FC
:1004F000000100D0800100D0044A1078431CDBB218
:10050000172B00D9102313707047C04688030020B2
:1005100000B5054B83B00100009318221F23034848
:10052000FFF786FF03B000BDB86E0010080D002075
:1005300083680B4810B58446614462440901120186
:100540009A18591854684B6801209C4201D802D06F
:100550000020C0B210BD12680B689A42F9D8F7E7C4
:10056000FFFFFF0F0A4B1968EFF3108072B60A689D
:10057000002AFCD0BFF35F8F1B68BFF35F8F0022A0
:100580001A6080F3108840BF002000217047C046E9
:10059000CC110020F8B557464E464546DE46E0B53C
:1005A00099460CAB1C780DAB1B78060090469A461A
:1005B0000768002C11D1BC7B002C42D065003B6841
:1005C0002D19033D59194B78BB73002B00D1FB73D8
:1005D00000238B704B700B7004E065003B682D1995
:1005E000033D5919B2682A4B94464246E3181B0151
:1005F00063441A604A465A600A9A9A600B9ADA6013
:1006000000238B704B700B707B7B9B46002B2BD099
:1006100022005946B8687B6898473A68002816D087
:100620005B4658465B005B445519033BA870D118E4
:10063000D35C002B00D06B705B460C707B73A345C2
:1006400013D0F0BCBB46B246A946A046F8BD5B46F7
:100650005B005B44033BD3189C705119525D002A28
:1006600000D05A705B460B707C7342464B46307D1F
:1006700000F026FC051E06D05346002B03D12100B6
:10068000306800F073FE0E9B002BDAD01D70D8E7A7
:10069000FFFFFF0FF0B5DE464E46574645460023A6
:1006A000E0B58DB00A936B4B8200D3580B909946FE
:1006B00000239B464B46079300F0A2FB079C0600D5
:1006C0000F006268EFF3108572B61368002BFCD040
:1006D00022000794BFF35F8F2468637B9946002B49
:1006E00067D092685C4B90464B441B01984443464C
:1006F0001A685B6810001900801BB94100295FDD92
:100700000B9800F0DDFB00230026984600279A4650
:10071000079C6368BFF35F8F5A461A6085F31088A1
:100720005346002B08D10028C6D10DB0F0BCBB4603
:10073000B246A946A046F0BD0A9B414618024B4668
:100740001843D047089009916268EFF3108572B69C
:100750001368002BFCD00794BFF35F8F0899099AA8
:10076000002A48DB114303D0079B1B69002B5DD196
:10077000079B1B68D97B002907D04A0052181968CB
:100780008C4649466244033A51704A46DA734B46F6
:10079000079A013BD168CA5C0132CA545B46079A8A
:1007A00013615368BFF35F8F5A461A6085F3108850
:1007B00082E700230026984600279A460020A7E7F4
:1007C000002901D100289BD10021200000F050FD1C
:1007D00043461E685F689B68079A9A464346DB68F3
:1007E0009846D3684B44013B1B780A931B02034392
:1007F000136100208CE72369002BB9D033003C0043
:100800005B1A94411A002300A74219D89F421BD0BB
:1008100059460491012103914946029141460191B3
:10082000514607980091FFF7B5FEB7E700F0E8FAE8
:10083000089A099B06000F0092197B419942E5D95D
:1008400001225242D317E3E79642E1D901225242F4
:10085000D317DDE7B0110020FFFFFF0FF8B55746B3
:100860004E464546DE46E0B5404D81468A466A68BA
:10087000EFF3108872B61368002BFCD0BFF35F8FC4
:100880002E68B47B002C39D0670033683F19033FD2
:10089000DB195A78B273002A00D1F273A968344A7E
:1008A0008C464946A21812016244116051465160BB
:1008B000304991600021D160997059701970737B33
:1008C0009B46002B35D022001900B068736898470A
:1008D0003268002820D05B4658465B005B44D7193D
:1008E000033BB870D118D35C002B00D07B705B4603
:1008F0000C7073735C451DD0002626E06B68BFF357
:100900005F8F1C6088F3108801204042F0BCBB461A
:10091000B246A946A046F8BD5B465B005B44033B7C
:10092000D3189C70D119D25D002A00D05A705B4652
:100930000B7074734A465346287D00F0C1FA061EB8
:10094000DAD02100286800F011FDEB681B19013B8B
:1009500019786B68BFF35F8F00221A6088F31088E4
:100960000020002ED2D108022043CFE78C030020C4
:10097000FFFFFF0F6505001010B5124C6368002BD8
:1009800004D00A21104800F029FB10BD23000F4AB3
:100990001021206800F08AFB032000F025FA0320D4
:1009A00000F0FEFA03200A4900F044FAFFF7A4FD24
:1009B000084B9C46032360442375074B800060600E
:1009C000DC60DEE78C030020CC1100203105001034
:1009D0009506001040000034B01100200048704718
:1009E0008C030020F0B557464E464546DE46E0B53E
:1009F00085B0019310AB1B780600039300239A4641
:100A0000984600927268EFF3108972B61368002B53
:100A1000FCD0BFF35F8F3568AC7B002C49D06700FA
:100A20002B683F19033FDB195A78AA73002A00D1BB
:100A3000EA73B1684F4A8C4600980199A2181201D6
:100A40006244106051600E9991600F99D1604246E6
:100A50009A705A701A706B7B9B46002B45D022000F
:100A60001900A8686B6898472A68002830D05B4650
:100A700058465B005B44D719033BB870D118D35C70
:100A8000002B00D07B705B460C706B735C452DD0E7
:100A9000F3681B19013B18787368BFF35F8F4246F8
:100AA0001A6089F310885346002B2CD10002204392
:100AB00007E07368BFF35F8F1C6089F31088012023
:100AC000404205B0F0BCBB46B246A946A046F0BDC8
:100AD0005B465B005B44033BD3189C70D119D25D2D
:100AE000002A00D05A705B460B706C73307D009A00
:100AF000019B00F0E5F982460028C9D0210030684A
:100B000000F034FCC4E7039B002B30D00E9B002088
:100B10000F999847030004000D000B4327D00029CC
:100B20000DDA0098019902000B00121BAB419942AB
:100B300013D818D000920193039B9A4662E700F005
:100B40005FF902000B00A4185D4100940195A942D1
:100B500003D8F1D100998A42EED901235B42DC1718
:100B600000930194E8E700999142E3D9F5E700206A
:100B7000A7E7C046FFFFFF0FF0B504000D000626F3
:100B80007642F717C64636196F4100B58F4213D823
:100B900010D000F035F932003B00121A8B41002BC7
:100BA00014DC002B37D02900200000F033F980BC82
:100BB000B846F0BD8642ECD90026002700F020F9A7
:100BC00032003B00121A8B41002BEADD3000390065
:100BD000FFF744FE0028E6DB00239846BC460F4A98
:100BE0000F4F7B6A9C4504D8B96A8E42DBD99C457D
:100BF000D9D11168EFF3108072B60B68002BFCD0CE
:100C0000BFF35F8F1368BFF35F8F4146196080F3B6
:100C1000108820BFE5E7002AC5D0D7E7CC11002017
:100C20000040054070B5060000F0EAF8FA22040022
:100C30000D00002330000021920003F083F9001919
:100C400069418D4205D802D0FFF796FF70BD8442FE
:100C5000FAD901204042C117F6E7C046F8B5CE46A2
:100C6000474680B506000C00FFF7F8FD00280CDCB5
:100C70002D4B0020596A8C4203D89B6A0130B34245
:100C800045D3C0BCB946B046F8BD20BF274D6A6801
:100C9000EFF3108772B61368002BFCD0BFF35F8FA1
:100CA0002B68C1B29C465B7B8B4235D0FF2303404F
:100CB0005A00914662461268994490464A46424418
:100CC000033A9278002A1DD0EA68000A904643440D
:100CD000013B1B78C0B2834221D06B68BFF35F8FAA
:100CE00000221A6087F310880F4A0020536A9C4242
:100CF000C7D8926A0130B242C3D2E01A421E904174
:100D0000C0B2BEE72B699842E7D12A61E5E7601AD5
:100D1000431E9841C0B2B4E7FF230340D4E76046C6
:100D200000F024FBD9E7C046004005408C030020BA
:100D3000F0B5D6464F464646C0B5EFF305833F2291
:100D4000134018001038EFF3108C72B6204D2A684B
:100D5000002AFCD0BFF35F8F0122110081401D4C9F
:100D6000884661631C4917000E788A463100C140ED
:100D70000F400A4209D1BFF35F8F2F608CF31088B8
:100D8000E0BCBA46B146A846F0BD14498200646A88
:100D900051588C420FD3124BD25843469E43534670
:100DA0001E70BFF35F8F00232B608CF31088002A26
:100DB000E6D09047E4E70B4A9B00904643441A680C
:100DC0001A60BFF35F8F00232B608CF31088D7E786
:100DD000280100D000400540FF110020D81100205C
:100DE000F80B0020D03F054010B50100024A03482F
:100DF000FFF7FCFA10BDC046D46E0010FC110020B5
:100E0000034B596A0A00986A596A8A42FAD17047B4
:100E100000400540064A536A9942FCD807D1044B6A
:100E200002E05A6A914202D19A6A8242F9D370472B
:100E30000040054070B504000D00EFF3108672B657
:100E40001A4A1368002BFCD0BFF35F8F002D1BD014
:100E5000200000F0D9FC164981420AD0200000F0A1
:100E6000DBFC0121200000F0B5FC0123A340114A66
:100E70001360114BA400E550BFF35F8F00220B4BB2
:100E80001A6086F3108870BD0B4BA200D55001226A
:100E9000A2400A4920000B7893430B70044900F0EC
:100EA000E5FC0021200000F095FCE5E7280100D0DA
:100EB000310D001038600540F80B0020FF110020B4
:100EC000F0B54F46D6464646C0B507002F4C616A7E
:100ED0000D00A66A616AA942FAD18B4208D805D0F2
:100EE0000120E0BCBA46B146A846F0BDB242F7D9EF
:100EF000EFF3108A72B6264801680029FCD0BFF3D0
:100F00005F8F0125BD402349204C884609788946DA
:100F10002943C9B28C46414660460870391D1E48B7
:100F2000890065630A51B9000B50216A00202942EB
:100F300019D0616A0800A66A616A8142FAD18B42BF
:100F400019D801D1B24216D8CC451DD00F4B1F2065
:100F50001D625D6301230740BB40104A1E381360C9
:100F600043464A461A70BFF35F8F0022084B1A604F
:100F70008AF31088B5E70020BFF35F8F0022044B8F
:100F80001A608AF31088ACE70120ECE700400540C6
:100F9000280100D0FF110020D811002080E200E0DD
:100FA000EFF3108C72B60A490B68002BFCD0BFF32C
:100FB0005F8F01238340074A0748136202789A43F0
:100FC0000270BFF35F8F00230B608CF310887047B3
:100FD000280100D000400540FF110020024B9C4634
:100FE00061448900016070474000003410B504007E
:100FF000FFF782FA01002000FFF7F0FFFF232371C3
:10100000BFF35F8F10BDC04610B50400FFF774FA40
:1010100001002000FFF7E2FFFF23A380BFF35F8FF3
:1010200010BDC04610B504000120FFF771FA044B53
:101030009C46604480002060BFF35F8F10BDC046B7
:101040004000003470B5050014001600002915D0CA
:101050000C00002A12D080686B6898472968002825
:101060000ED073009B196200033B1219CB18033A90
:101070009C7088188A5C002A15D10670200070BD0B
:1010800063001B197200033B9219CB18033A9E7040
:1010900088188A5C002A02D104703400EEE75A7086
:1010A00004703400EAE75A700670E7E730B58360F1
:1010B0000023CCB243730133047342608373C4735F
:1010C0000D000068012C06D9421C0133DBB21370FD
:1010D00003329C42F9D1FF2129404B0059180023CB
:1010E00040180338437030BDF8B5CE464746060079
:1010F0000C0080B5002907D04D0003686D18033D32
:101100005A195778002F04D12000C0BCB946B04608
:10111000F8BD7900C919033988464344597889468E
:1011200000215970517073683A0021008068984717
:101130003368002814D042469A18947059195B5DA0
:10114000002B00D053700F70270049463000FFF786
:10115000CBFF390002003000FFF774FF0400D3E733
:10116000424641465D19AF709A185B5C002B00D077
:101170006B701470E9E7C046F0B557464546DE4649
:101180004E46E0B50D006B0001685B19DF1E0400E0
:10119000C85D83B00192CA1900284CD043001B18C7
:1011A000033BCB185E78B446002E16D1019E002E6C
:1011B0003ED0E67B002E04D073009B19CB18033B76
:1011C0005D70E57300282FD10023537003B0F0BC8D
:1011D000BB46B246A946A046F0BD72006244033A3F
:1011E00089184A78904600224A7091465A70010048
:1011F00032002000FFF726FF43468246002B07D02F
:101200005B0021684344033BCB185A78002A16D16F
:10121000424651462000FFF715FF2168019BCA197D
:10122000002BC6D10028CFD043001B18033BCB189E
:1012300000219970C8E7019B002BBAD1C4E7500088
:101240008018033809184878834648464870587013
:1012500041462000FFF7F6FE594680462000FFF782
:1012600043FF414602002000FFF7ECFE8046CFE737
:10127000F0B557464546DE464E46E0B583B001918F
:10128000457B04006B0000685B19DF1EC15DC2195D
:1012900000294ED04B005B18033BC3185E78B44660
:1012A000002E18D1019E002E40D0E67B002E04D0E7
:1012B00073009B19C318033B5D70E573002931D19E
:1012C000002328005370617303B0F0BCBB46B246E4
:1012D000A946A046F0BD72006244033A80184278E5
:1012E00090460022427091465A7020003200FFF76B
:1012F000A9FE43468246002B07D05B002168434489
:10130000033BCB185A78002A17D142465146200099
:10131000FFF798FE019B01002068C219002BC4D181
:101320000029CDD04B005B18033BC31800209870F8
:10133000C6E7019B002BB8D1C2E7500080180338E4
:10134000091848788346484648705870414620003E
:10135000FFF778FE594680462000FFF7C5FE41465C
:1013600002002000FFF76EFE8046CEE770B5040055
:1013700000292CD0437B8B422ED0056848004018B2
:10138000033828188278002A21D053009B18033B89
:10139000EA5CEE188A4202D11BE0002A08D0530012
:1013A0009B18033BEB185A788A42F6D142785A7060
:1013B00000230122837043702000FFF7DDFE617B74
:1013C00002002000FFF73EFE6073012000E00020D5
:1013D00070BD43783370EBE701221900FFF7CCFEB4
:1013E00060730120F4E7C0462C4B2D4A70B51A609B
:1013F0002C4A2D4B2D491A6014008B689C43FBD15D
:101400002B4D2C4EB54208D2013E761BB60808CDB6
:10141000984723000134B342F9D100F07DF8264A01
:10142000214B1A60214A9368DB43DB01DD09002B65
:10143000F9D14022214B224C224E9A675A671A67F3
:10144000DA66B44208D223682000002B20D008348A
:10145000FFF7DAFDB442F6D31B4E1C4CC022A16844
:10146000300002F0DFFDA660FFF738F800F032FB35
:10147000FFF782FA164C174EB44208D2013E361BD3
:10148000B60808CC98472B0001359E42F9D170BDB3
:101490000834FFF7ABFDB442D5D3DDE700E00040F0
:1014A000BFCDFBFEFE7F3C0000F0004000C00040CE
:1014B0006804002078040020FFFFFF0100F00140D5
:1014C00060040020680400200000002000ED00E01F
:1014D000780400208004002000BEFDE70FB400B5B2
:1014E000084883B002F006FF049B002B07D005A933
:1014F0001800019101F086FE034802F0FBFE00BED9
:10150000FDE7C046F86E0010AC6E001010B5014843
:10151000FFF7E4FF086F001030B50C2083B000F037
:101520003FFBFEF7D3FF00280ED0944B944A1A607D
:101530005A609A60DA601A615A619A61DA611A62D5
:10154000904A5A6203B030BD8F4CA06700F07CFB1C
:1015500001228E4B1A60636C012BFCD103228C4B51
:101560001A60894A936B012BFCD102240121894A1C
:1015700089480533009400F0BFFA0523874A01210A
:101580008748009400F0B8FA864B5A68FF2A02D8C0
:10159000802252005A608022784C7D4B21691201D2
:1015A000804D1A60002905D0606901F0A5FE013068
:1015B0000138FDD1E0217B4B02201A6811408022C6
:1015C00052012A431160196848400321014011600B
:1015D00004219A681142FCD08022802192012A4382
:1015E00009011160802252005A606F4B23616F4BDA
:1015F0005968FF2900D85A600321644A6B4B116077
:1016000002399A681142FCD0E0201A68104080220A
:1016100052011A431060186848400321014002201B
:10162000116062498A681042FCD080229201134303
:10163000802212011A6080225D4B52004A60636171
:101640005C4B5968FF2900D85A6080225A4BE169E7
:101650001201584D1A60002905D0606901F04CFE56
:1016600001300138FDD1E02252490B681A40802335
:101670005B012B431A60802380229B012B431201C4
:101680001A6080223E4B52004A60E3614B4B59681E
:10169000FF2900D85A608022494B216A1201474D28
:1016A0001A60002905D0606901F026FE013001387A
:1016B000FDD1E02241490B681A4080235B012B4396
:1016C0001A60802380229B012B4312011A60802321
:1016D00080225B004B602A4BD2022362394B59684F
:1016E000914200D25A608022374B616A1201354D17
:1016F0001A60002905D0606901F0FEFD0130013853
:10170000FDD1E0222F490B681A4080235B012B4357
:101710001A60802380229B012B4312011A608023D0
:10172000DB024B60174B6362284B5A68FF2A02D8D2
:10173000802252005A608022254BA1691201234D5C
:101740001A60002905D0606901F0D6FD013001382A
:10175000FDD1E0221D490B681A4080235B012B4319
:101760001A60802380229B012B4312011A60802380
:101770005B004B600E4BA361E4E6C0460C0D0020FD
:10178000006CDC021BB70000008000403CB0004051
:1017900030B00040002F68590080024000389C1C87
:1017A00000C0024030800040001BB7003C80004079
:1017B000405973075480004054B00040608000409E
:1017C00060B000406C8000406CB000404880004039
:1017D00048B0004001238340002904D0034A13602D
:1017E000034A13607047034A1360FBE780E200E09E
:1017F00000E100E080E100E001238340014A136042
:101800007047C04600E200E0024B10309B68800049
:10181000C058704700ED00E070B50D00EFF3108682
:1018200072B60F4A1368002BFCD0BFF35F8F0D4BCD
:1018300010309B6884001B590B4A934203D09D4291
:1018400001D0FFF763FE074B9B681D51BFF35F8F0D
:10185000BFF35F8F0022024B1A6086F3108870BDC1
:10186000240100D000ED00E0CD010010F0B5DE460F
:1018700057464E464546E0B50C0083B0EFF3108A5C
:1018800072B65A4A1368002BFCD0BFF35F8F102248
:10189000914681444A46564B96009B689D59554B4C
:1018A00098469D4205D0A54216D0534FEB1B2F2BD7
:1018B00014D94F4B9B689D51BFF35F8FBFF35F8F70
:1018C00000224A4B1A608AF3108803B0F0BCBB4672
:1018D000B246A946A046F0BD1D00EAE701238340B9
:1018E0009B465A46454B1B681A4000925A46444B49
:1018F0001A60BFF35F8FFEF7B6FC0190002803D09B
:10190000814501D0FFF702FE01232A009A4313000C
:101910003C49DB1B5B415943090D93689C4208D14C
:101920005AE043001B189B00FB189868A04211D096
:101930001A00062010560028F3DA009B002B05D071
:101940005A46314B1A602D4B1A60B2E75A462C4B5F
:101950001A60AEE706201856002821DB4200111855
:1019600089007C188846A1689960E179D9710621BF
:101970006156997100291FDBA488F91A64052415A2
:1019800044440919E0240905490D240221439980A2
:1019900012181E4B9200BF181A781870BA71CCE753
:1019A000019800280BD1FF30907119489080174A98
:1019B000107811709871C0E7BD210902E7E7154A58
:1019C0001549D21A083A5002400D01439980134933
:1019D00052080A43DA80B0E70620105613000028A8
:1019E000BCDA019A002AEAD14546E0E7240100D09A
:1019F00000ED00E0CD010010B403002000E100E0A4
:101A000080E100E0AAAA000080E200E0FD110020D1
:101A100000BDFFFFEE03002000F0FFFF00F8FFFF16
:101A2000F8B5012504000543FEF71DFCEFF3108C0B
:101A300072B6214A1368002BFCD0BFF35F8F1F4E94
:101A40002100B7681E4A1F4B891A49414B431B0DA1
:101A500059B28300F858A8421CD00623D3568B42B3
:101A60001CD01223D3568B4222D01E23D3568B4236
:101A700020D02A23D35603208B4210D0124B1A7841
:101A80001970A271BFF35F8F00220B4B1A608CF3A9
:101A90001088F8BDB2680D48D050EFE70020430031
:101AA0001B189B00D218FF239371094B9380E5E725
:101AB0000120F4E70220F2E7240100D000ED00E06D
:101AC000B4030020AAAA0000FD110020CD010010DF
:101AD00000BDFFFF054B064A1360064A13605360C2
:101AE0009360D360136153619361704780808080FD
:101AF00000E400E004E400E0F0B5C646040000B5F0
:101B00000C2090461F000E0001F0F6FB4101091A5F
:101B10008D01691AC90009188901404601F0ECFBE2
:101B2000069B3F041A0323681743002B22DB184B44
:101B3000184DE21853425A4180235B019C46120320
:101B4000154B62441A60154B1A601100AB6899433B
:101B5000FBD1C022231D92011A4321232660A060DD
:101B600013602368002BFCDA0823E760136080BC55
:101B7000B846F0BD3F2322681340B342D7D1A368D3
:101B80001B051B0D8342D2D1E368002FCFD1EEE7B6
:101B90000040FDBF00C0004000E0004000F00040F9
:101BA0008023024A9B000343D362704700800540B4
:101BB00010B5140080221B4BD2051A6000281AD0E1
:101BC0000123194A1843194BDA61194A42401A6233
:101BD000596298628022134BD2051A601549164A41
:101BE0001160E022D2041A60002C07D18022134B2E
:101BF00012061A6010BD0D4BD861EBE763011B1B89
:101C00009A008023121912015B049A4200D30C4AF5
:101C10000C4B1A60054B5A608022084BD2051A60A3
:101C2000E8E7C04600B00540D3C007B000800540DB
:101C30002D3FF84FFCFF01000820014000A00540A7
:101C4000FFFFFF00A8110020AA23064A1B01136012
:101C50002F230549D360054B19605368002BFCDA2C
:101C60007047C0460040024000B0FA0000600240E9
:101C70007047C046F8B557464E464546DE46E0B585
:101C800099460A9B07009A460D9B88469346150085
:101C90000B9E9B0710D10C9B9E420DD29D1B1400E6
:101CA0000E005D4422004B46013431002020B8472D
:101CB000A542F7D1B0460B9E002E27D04446751999
:101CC0005346AA1B013E985D21004B46B847002EA3
:101CD000F6D123002C0098460D9B9B070FD55B4641
:101CE000E51A0C9BAB420AD94646984622004B4661
:101CF000310020200135B8470134A845F6D820002E
:101D0000F0BCBB46B246A946A046F8BD2C00E3E7AE
:101D1000F0B54F464646D646C0B584B098460EABA1
:101D20001B78129F994694460D9C109B119EBA07F2
:101D300025D4002E4BD19C4200D3BFE001223A4073
:101D400092461F2C00D9B8E00C9A551E302201E0B3
:101D5000202C03D001342A55A342F9D85246002A38
:101D60000DD0A6420BD9202C44D00C9A551E3022FF
:101D700001E0202C3ED001342A55B442F9D1FA06B4
:101D80004DD57A053FD4002C39D10F9B102B00D1B3
:101D900079E00F9B022B00D18AE030230C9A0124BA
:101DA00013704B46002B3FD02D230C9A1355013452
:101DB0000C9B624600930397434602960194FFF7FB
:101DC00059FF04B0E0BCBA46B146A846F0BD0122B6
:101DD00015003D40AA463A422FD04A46002A02D179
:101DE0000C323A4200D0013E9C42BAD21F2CABD9F1
:101DF000202E27D92024FA06DAD57A0503D4A34267
:101E00002DD0A6422BD00F9B102B32D0022B20D0EE
:101E1000202CCDD030220C9B1B191A700134202CA1
:101E2000C6D04B46002BBFD17B070DD43B07BFD597
:101E300020230C9A13550134BAE79C429FD21F2CE1
:101E400000D881E720249AE72B230C9A13550134FC
:101E5000AEE7202CACD00C9B1B1901343AE0631E7A
:101E6000012C92D00F9A102A2AD0022A2FD01C00BF
:101E7000D0E7BB060ED4202C9AD00C9B1A19013443
:101E800078231370C4E7BB060DD478230C9A012481
:101E90001370BFE7202C00D18AE758220C9B1B1936
:101EA0001A700134B4E758230C9A01241370B1E777
:101EB0000C9A603301241370ACE7202400265EE7FF
:101EC000023CBA06E9D40C9A12191C00D8E70C9A05
:101ED0009246534462221A709AE7C04610B5002811
:101EE00000D110BD02F0B6F9FBE7C0460B0010B5FB
:101EF000002802D049681B68984710BDF0B5DE463F
:101F000057464E464546E0B59BB09B46249B8946C6
:101F10009846259B0B900C924046424619009A46E3
:101F200001F0BBFC002800D0D8E001224046514619
:101F3000774B524201F0ACFC002800D0CEE00122E9
:101F400040465146734B524201F08CFC002800D0B1
:101F5000C4E0002200234046514601F083FC0028E3
:101F600000D0B9E1424653460A9209938023289A49
:101F7000DB001A400E92289A1A4201D106232693BA
:101F80000A9A099B1600134300D0C7E0289B00253E
:101F900000261B0500D49BE100230D93269A0D9B80
:101FA0009A4200DC9FE1D01A431E26938023289A90
:101FB000DB001A430023002728920D93279B00245F
:101FC000BB4200D9DC1B0223289A1A400E92289AA1
:101FD000134203D07B427B415B421C400D9B002B94
:101FE00007D00A9809992A00330001F0DAFB0A9019
:101FF0000991002200234046514601F033FC00289D
:1020000005D0802000068446099961440991289AE8
:10201000414B0B9D13400493269B0A9A0293099B04
:1020200003940092019349465B4628000C9A00F005
:102030008BF90400002F62D0289B220098061F23F2
:10204000C0179843631C984649465B466530A847CD
:102050000D9B0025DA179C18DB0F9A465440013F70
:1020600001E0202D13D00AAA94461F2320006344C8
:102070000A2101355E1901F03FF93031317020003D
:102080000A2101F039F926000400092EE9D80523B8
:102090000693002304930A330393534605970B9F3B
:1020A000029312AB009342465B46494638000195C5
:1020B000FFF72EFE0E9B0400002B20D00C9BC51AB0
:1020C000279BAB421BD91E0022005B4649462020BD
:1020D0000135B8470134AE42F6D810E0289B42469D
:1020E0000493279B49460393269B0B9802935346E0
:1020F000009201935B460C9A00F026F90400200040
:102100001BB0F0BCBB46B246A946A046F0BDC046D7
:10211000FFFFEF7FFFFFEFFFFFF7FFFF734B099F0D
:102120009C467800400D604401F0CAFB704A714B38
:1021300001F055FB704A714B01F02AFB3B03704ADA
:102140001B0B1A4304000D00300011006D4B0022E0
:1021500001F015FB6C4A6D4B01F041FB02000B00D6
:102160002000290001F014FB01F0C2FB0D9001F0EA
:10217000A7FB674A674B04000D0001F030FB00220B
:10218000654B01F005FB01F0B3FB644A0600644BAC
:102190002000290001F023FB040030000D000F9601
:1021A00001F08EFB5F4A604B01F019FB02000B004F
:1021B0002000290001F0E3FA02000B0006000F00E6
:1021C00001F00DFB320004000D003B00300039002F
:1021D00001F0DEFA002210901191544B20002900EA
:1021E00001F0DFFA0022524B01F0D2FA02000B009C
:1021F0002000290001F0D5FA00224E4B01F0C8FA68
:1022000002000B002000290001F0CBFA0D00802114
:10221000040032003B000020C90501F0B0FA0200C2
:102220000B002000290001F0B3FA02000B00109807
:10223000119901F0B6FA0022314B01F0A9FA3E4B98
:102240000F9C9C4664440022230501F0C8FA050057
:102250000E0002000B000A98099901F003FB002808
:102260000AD00D9B2800013B31000D930022304B1A
:1022700001F097FA05000E00C6270D992B00633177
:102280008F42BF4128997F420437090500D495E663
:10229000334300D182E6099C284A2100284B0A9842
:1022A00001F0EEFA002808D000222100254B0A9800
:1022B00001F0D8FA002800D070E6269B002B00D150
:1022C0007CE60E9B5A1E9341269AD31A269375E6F6
:1022D000002304270D9371E643460A9380231B06CF
:1022E0005344099342E6002326935FE601FCFFFF77
:1022F000FB799F501344D33FB3C8608B288AC63FF5
:102300000000F03F0000F83F61436F63A787D23FB2
:1023100071A379094F930A400000E03F1655B5BB01
:10232000B16B0240EF39FAFE422EE63F00002C402E
:102330000000244000001840FF0300002D431CEB68
:10234000E2361A3F80842E41F0B54E46DE465746AF
:102350004546E0B597B09946209E219F229B834633
:10236000984607910C923B0032003000390001F092
:1023700094FA002800D0A9E1012230003900CA4BAC
:10238000524201F06FFA002800D0E1E00122300053
:102390003900C64B524201F07BFA002800D0B7E06A
:1023A000002230003900C24B01F072FA002800D040
:1023B00099E0002230003900BE4B01F053FA0028AA
:1023C00000D090E0002200233000390001F04AFAEA
:1023D000002800D0B1E000230D93249B5B0501D4BD
:1023E0000623984608AB9C4617220024302341461A
:1023F000624404E0013413550139202C01D009292D
:10240000F8D888463000390001F072FA4346DA0005
:10241000A94B05009B181A685B680892099301F0A4
:102420004FFA02000B003000390001F0A8F9089AB9
:10243000099B01F0D4F90A900B9101F07DFA8246D4
:1024400001F03AFA02000B000A980B9901F097F993
:1024500000229A4B0A900B9101F01AFA002800D141
:10246000C0E001239C46E244504601F025FA0200F8
:102470000B000898099901F0FBF9002802D000230D
:102480009A4601354346002B6AD008AB17269C4676
:1024900008956644554614E001235B4243440A21F3
:1024A00028009A4600F028FF01343031371939707E
:1024B00028000A2100F020FF092D00D8D0E0D046E6
:1024C0000500202CE8D10EAB98460323249A134034
:1024D000012B00D196E02023249A01930392239AA2
:1024E000434602921EE0249B58460493239B009689
:1024F0000197039343460C9A029307994B46FFF7C3
:10250000FDFC17B0F0BCBB46B246A946A046F0BDE4
:10251000249B5B070ED40322694B249901920391FB
:1025200023990291009358464B460C9A0799FFF75E
:10253000A1FBE6E70422634BEFE73B0032000020FB
:10254000002101F01CF9012306000F000D9344E760
:10255000249B0393239B0293042301935A4BE1E7AB
:10256000280001F0ADF902000B003000390001F045
:1025700006F9524B002206000F0001F073F90EAB72
:10258000984600280AD10022300039004B4B01F058
:102590007FF9002802D1EB0700D50135202C94D01B
:1025A00008AA94461723280063440A2101341E19FF
:1025B00000F07AFE3031280031700A2100F074FEFC
:1025C000051EEBD10323249A1340012B1BD0202C92
:1025D00000D180E70D9B002B35D02D224146631C96
:1025E0000A5579E700220A980B99344B01F03AF921
:1025F000002800D046E75346002B51D101239C46CA
:10260000E2443FE72024239B002BE0D00D9B002BCE
:1026100003D1249A0C33134202D0239B013B239312
:10262000239BA342D3D908AB9C4617223023624494
:10263000202C00D14FE72399013413558C42C6D08A
:10264000202CF8D147E7249B5B0724D4249A23004D
:10265000120700D440E72022414601330A553BE7E8
:102660005746089D202C00D12DE7220030214046FE
:10267000002F09D00132B154202A00D123E7D343DF
:102680001B191B18002BF5D10EAB98462E23414683
:10269000541C8B5482E72B224146631C0A551BE7CE
:1026A000DB0700D4EEE6A9E7FFFFEFFFFFFFEF7FB8
:1026B00065CDCD4165CDCDC1107100100000E03F6A
:1026C000146F0010186F0010246F0010249B0393E8
:1026D000239B029303230193004B23E7206F0010F9
:1026E000F0B5DE464E4657464546E0B59FB01C0065
:1026F000289B91460993C94AC94B8B4608901A609A
:10270000002900D118E2002320789A46002800D141
:102710001AE226001D005C460AE02A006F1C4B46A8
:10272000089D2100A8473D0001363078002870D070
:102730002528F2D110239B46083B9A46043B984635
:10274000023B00219C46721C107816000300203BBF
:10275000DBB2102B03D8B34F9B00FB589F460300FE
:10276000303B092B32D900230A932A2868D0002352
:1027700098462E283ED00300683BDBB2122B1CD8B3
:10278000A94A9B00D3589F46012301321943DBE736
:10279000634601321943D7E7434601321943D3E771
:1027A0005B4601321943CFE7534601321943CBE769
:1027B00080235B007078194301360300253BDBB2B0
:1027C000532BAAD8994A9B00D3589F460027030051
:1027D000B800C01901364000C018337830381A00EC
:1027E000303A0700092AF3D90A90180000239846C6
:1027F0002E28C0D180237078DB0019430300303BC2
:10280000721C092B00D8A1E12A2800D1B2E11600E0
:10281000B1E7A346AA462C00D14503D801235B4269
:102820004B449A464B46524659460020089DA847BD
:1028300020001FB0F0BCBB46B246A946A046F0BD82
:10284000099B40CB0A96002E03DB50780993561C57
:102850008DE72838014370420A9009935078561C3E
:1028600085E7782800D1DFE1582800D14CE26F28B5
:1028700000D14FE3622801D100F030FC10230A00A0
:102880009A430B92692801D000F0A9FC0A230C930B
:102890004B0500D5D0E10B9A802311009B00194015
:1028A0008B461A4200D0A1E2802311005B00194040
:1028B0008A461A4200D0B6E313005B0600D5EDE26B
:1028C000130009991B0601D400F076FC08C91BB25D
:1028D000D8171A18424092B209919346DA0F129211
:1028E000002B09D1802310220B99DB000B40914370
:1028F0000B91002B00D0E4E20B9A6123920600D5E5
:1029000041230EA91F228C46DBB262440A3B5F467C
:102910001395A34655460C9CB2460D9316000AE04B
:102920003033DBB201357355A74200D2EDE2202DE2
:1029300000D1EAE207002100380000F0DDFCCBB254
:102940000929EDD90D9A94466344DBB2EAE7802366
:102950009B007078194301362FE77078682800D102
:10296000CDE180230136194327E770786C2800D128
:10297000BFE180235B00194301361EE7462800D1E2
:102980009BE10722099B0491073393430A9A19009C
:102990000392424602920CC9089800920193099151
:1029A0002A004B462100FFF7CFFC01360500BCE6AC
:1029B0002A006F1C4B46089D21002520A8470136A0
:1029C0003D00B2E68B0700D4ADE1099B2A009A4690
:1029D0006B1C9846534601CB21009A46089F4B46F4
:1029E000C0B2B8470A9B9C466544012B00D886E2DA
:1029F000089B4746B04626004C4699463A002300BD
:102A0000013731002020C847AF42F7D1A1465346D5
:102A1000340046460993013687E6C046E126001099
:102A2000A41100202C6F0010706F0010BC6F0010FC
:102A3000099B04CB9B4643460992002B00D1C6E07C
:102A400013789C46002B00D1BDE34346013B099A15
:102A50000133D0180A9F130001E0834203D05A7853
:102A60000133002AF9D1099A0A979B1A0B93802304
:102A70000A00DB001A400C92194204D00B9B43451C
:102A800001D943460B9302231A000A400D920B42D0
:102A900000D187E16046002800D168E10C9B002B43
:102AA00000D10DE1A844C246099B57465B1B9846DE
:102AB000089BB2462A0026004C46994609E02300AE
:102AC0003100551CC8474346585D002800D126E117
:102AD0002A009742F3D1A1463D00340056460D9B93
:102AE000002B00D043E15B46013609931DE6099BAC
:102AF0001A0008CA9246002B48D0212211438B4667
:102B00000EA884461F216144099500220F27A44680
:102B10000D0002E0202A0CD00B003C001C402000DD
:102B20003730092C00D807380132A85419090F2B67
:102B3000F0D86446099D32E0DC4B207808930023EE
:102B40009A46002800D0E4E5002465E643460600E6
:102B50000A9F9800C01801324000801916780300BF
:102B600030003038303B0928F3D930009846160041
:102B70000A9700E6099B023604CB9046D2434046B2
:102B8000D2171040804609933078F4E510220800EF
:102B9000904311321043834600224905B0D55B466D
:102BA00006930823059343460493102303930023BD
:102BB000029316AB019200932A004B46210008981D
:102BC000FFF7A6F85346050001360993ADE51378E3
:102BD0009C46002B00D1F7E202235B4237E720231B
:102BE00002009A43472A04D180231B011943022380
:102BF0009843452801D1202319430722099B0491BA
:102C0000073393430A9A19000392424602920CC971
:102C100008980092019309912A004B462100FFF782
:102C20006DF90136050080E510230C930C230A0092
:102C30009A430B924B0503D501230B9A9A430B92AF
:102C4000692800D127E6642800D124E60B9A802366
:102C500011009B0019408B461A4200D066E1802388
:102C600011005B0019408A461A4200D039E2130075
:102C70005B0600D53CE113001B0600D4A6E2099BCD
:102C800004CB1204120C934609935B46002B00D030
:102C90009AE10B9A1033110099430B91520500D41D
:102CA00092E100239A460B9B06930A9B05934346A9
:102CB00004930C9B039300230CE12023194360E64B
:102CC000099B0A9A5B1B98464B4691461F00B246E9
:102CD0002600089C2A003B003100A04743460135EE
:102CE000585D0028F6D14A463400B94656460A9245
:102CF000F5E6C0239B00B078194302365DE5C0239A
:102D0000B0781943023658E50C230A009A4314336D
:102D10001A43103B0B920C934B058DD496E7A146BA
:102D200034005646DBE60A9A012A00D853E26B1EAD
:102D30009F18089BB04626004C4699462A0023005F
:102D4000013531002020C847BD42F7D1A1463400EB
:102D50004646099B3A0001CB210098467D1C4B4614
:102D6000089FC0B2B847434601360993DDE40B9B88
:102D70000A9AA8469A4200D8B5E694466544ED1AE8
:102D8000089B4746B04626004C4699463A00230029
:102D9000013731002020C847AF42F7D1A1463400A7
:102DA0004646A0E60B9A0A99531C914200D814E2B9
:102DB0004B199B1A1F00089BB24626004C469946A9
:102DC0002A002300013531002020C847BD42F7D139
:102DD0000A9BA14601330B93099B34001B7856468E
:102DE0009C466046002800D058E67CE60722099BF6
:102DF00007339343013294469C4462465F680992CC
:102E00001A68FB17109311931098119903005340FF
:102E10000E930B007B400F9394460E9A0F9B121A51
:102E20008B410E920F93FB0F6246129300233A439D
:102E30009B463DD00B9A6123920600D54123002288
:102E4000DBB20EA90A3B8C4692460D9343461F32D5
:102E500062441395159655460E9E0F9FA2469046C6
:102E60000C9C14930CE03032D2B2434601355A55D3
:102E7000BB4500D18AE1202D00D18AE106000F0078
:102E8000220000233000390000F078FAD2B2092A7B
:102E9000E9D90D9B9C466244D2B2E6E7FF2309992B
:102EA00004C913401A00099117E5C046711C0010AF
:102EB0000B9A1033110099430B915205BAD5002398
:102EC0009A460B9B06930A9B0593434604930C9BDF
:102ED0000393129B02935346019316AB2A0000936F
:102EE00021004B460898FEF713FF013605001CE44D
:102EF000FF22099B02CB11408B460993C5E653463E
:102F0000454609930136FFF710FC56465C46AA4633
:102F1000139DD6E708230C930B910B99642800D0DE
:102F200084E60B9B5B0500D586E6B4E40722099B8B
:102F300007339343013294469C44624609921A68CF
:102F40005B6810009B4613005A46134307D10B9A47
:102F50001033110099430B91520500D5A1E60B9A4D
:102F60006123920600D541230022DBB20EA90A3B61
:102F70008C4692460D9343461F3262445F4612953B
:102F8000A34655460400B24690460C9E13930DE0AE
:102F90003032D2B2434601355A550023BB4200D1EC
:102FA00000E1202D00D100E104000F0032000023D9
:102FB0002000390000F0E2F9D2B2092AE8D90D9BCD
:102FC0009C466244D2B2E5E70B9A6123920600D593
:102FD0004123DBB20EA90A3B1F228C460D9323002E
:102FE00062445C461295170055469B46B2460C9EBD
:102FF00008E03033DBB201357B55B4420ED3202DCF
:103000000CD004003100200000F076F9CBB2092981
:10301000EFD90D9A94466344DBB2ECE756465C4622
:10302000AA46129D3FE6099B1A0008CAD9171392B7
:103030005A184A409246DA0F1292002B08D1802388
:1030400010220B99DB000B4091430B91002B2BD1ED
:103050000B9A6123920600D541230EAA1F2794469E
:10306000DBB20A3B0D9567445D460993A34654467F
:10307000B2460C9E08E03033DBB201357B55B442DA
:103080000ED3202D0CD004003100200000F034F9C4
:10309000CBB20929EFD9099A94466344DBB2ECE735
:1030A00056465C46AB460D9D0B9B2A0006930A9B39
:1030B00021000593434604930C9B08980393129BAD
:1030C000013602935B46019316AB00934B46FEF725
:1030D0001FFE139B05000993FFF727FB02230C93A8
:1030E0001AE7099B04CB92461293002A08D1802349
:1030F00010220B99DB000B4091430B91002B2BD13D
:103100000B9A6123920600D541230EAA1F279446ED
:10311000DBB20A3B0D9567445D460993A3465446CE
:10312000B2460C9E08E03033DBB201357B55B44229
:103130000ED3202D0CD004003100200000F0DCF86C
:10314000CBB20929EFD9099A94466344DBB2ECE784
:1031500056465C46AB460D9D0B9B2A0006930A9B88
:1031600021000593434604930C9B08980393002386
:1031700002935B46019316AB00934B46FEF7C8FDE6
:10318000129B050009930136FFF7CFFAB44200D82D
:1031900071E6149B54460E960F97AA469846159EC4
:1031A000139D8EE6A64200D8FBE6139B5646984632
:1031B000AA465C46129D76E508C9D8171A184240FF
:1031C0000991FFF78AFB00230B9350E4099B04CB82
:1031D0009346099359E52F00BBE50B9301E6063BA7
:1031E0000C939AE600B585B00391012102900093FB
:1031F000034813004A4202A9FFF772FA05B000BD66
:10320000ED1E001010B5094A0300146884B0002CAC
:1032100008D0012200910648524203A9A04701208C
:1032200004B010BD01F066F80020F9E7A4110020F9
:10323000DD1E001001480421014B18470004002046
:1032400065320010142310B50100188804331B8860
:10325000984710BD162310B50100188802331B884B
:10326000984710BDF8B54746CE4680B50F1E19D019
:1032700014239946043304000025012698464B4642
:103280001888434621681B88984701C4431E98410B
:10329000013540420640AF42F1D13000C0BCB946D2
:1032A000B046F8BD0126F8E7124A936F9B0815D285
:1032B0009066D166002905D0FFE7FFE7FFE7516F71
:1032C000106F704704B580210906C21751400028CD
:1032D00000D0C84303F0C4FD002104BDF0B5146E56
:1032E000556E576F166FFFF7E3FF14665566576705
:1032F0001667F0BD000000D0114A936F9B0813D2EF
:1033000010665166002905D0FFE7FFE7FFE7516F20
:10331000106F704704B5002801D00020C04303F0AF
:103320009FFD002104BDC046F0B5146E556E576F69
:10333000166FFFF7E5FF1466556657671667F0BD11
:10334000000000D094464E4A926F9208624601D225
:1033500030E0C046F0B54A4EB56F6D08FCD3346E10
:10336000756E776F366F00F025F89446444A146600
:103370005566576716676246F0BDC0469446404A98
:10338000926F9208624601D258E0C046F0B53C4EBA
:10339000B56F6D08FCD3346E756E776F366F00F0C5
:1033A0004DF89446364A1466556657671667624666
:1033B000F0BDC046002B24DB11D000293EDA00B559
:1033C000C943404200D1013100F038F8C9434042BE
:1033D00000D10131DB43524200D1013300BD002A4C
:1033E000EBD1002801D1002905D00020C90FC90761
:1033F00001D1C043410800B503F02AFD002200239B
:1034000000BD00B500290ADBDB43524200D1013385
:1034100000F014F8C943404200D1013100BDC94356
:10342000404200D10131DB43524200D1013300F070
:1034300005F8DB43524200D1013300BD002923D1FE
:10344000002B18D1002A0CD0BC460D4F38667A6686
:1034500000210023FFE7FFE7FFE77A6F386F674639
:103460007047002801D00748010000B503F0F0FCC8
:103470000022002300BD02000B0000200021704745
:10348000000000D0FFFFFFFF002B00D0BFE0130CB7
:1034900028D1002AE7D080B4114F39667A66FFE759
:1034A000FFE730B4040C7B6F396F1B0423433B668A
:1034B0007A66FFE7FFE7FFE7C04684B27B6F3D6FA8
:1034C0001B0423433B667A66FFE7FFE7C046002301
:1034D0002C042D0C7A6F386F00196941B0BC70470D
:1034E000000000D0F0B594460025140E01D1120260
:1034F0000835140F01D112010435940F01D1920047
:103500000235D40F01D152000135D40B0134254FBF
:103510007C66254C3C660E0C93B2FFE7FFE7FFE7A5
:103520003C6F6643360C7703BE467343DF0B5B0488
:10353000C01AB941130C7343DB18C91ACE0866438D
:10354000360CB64493B273431F0F1B01C01AB94126
:10355000130C73431F0B1B05C01AB941860D8F0254
:103560003E436643360C092D24DB520A7243801A0F
:103570007703460A6643360C16235B1BDE40DF40AA
:10358000BF1964466643821B70460435063301004A
:10359000D940A840C01900D30131A24206D200236D
:1035A000F0BD0000000000D0FFFFFFFF121B013044
:1035B000F3D3F1E709277F1BFE406446A2B27243B2
:1035C000801A00D20139220C7243130C1204821AA1
:1035D00099410B007046043513370100F940A840AB
:1035E000801900D30131002B02D1A2420AD2F0BDD2
:1035F000013000D30131121BFAD2013BF8D1A242B3
:1036000000D2F0BD013000D30131121BF7E7F0B555
:103610001C0C00D080E00CB400251C0A04D11B0255
:10362000160E3343120208351C0B04D11B01160F72
:103630003343120104359C0B04D19B00960F334396
:1036400092000235DC0B02D192185B4101351C005F
:10365000971864410134464F7C66464C3C660E0C1C
:10366000FFE7FFE7FFE7C0463C6F6643360C770392
:10367000BE4697B27743C01B00D20139C01B00D2AF
:1036800001399FB27743C91BC91B170C77437E04CE
:10369000FF0B801BB941CE086643360C0C2D33DB83
:1036A000B644120B1F053A431B0B97B27743C01B5E
:1036B00000D201399FB27743C91B170C77433E04F0
:1036C0003F0C801BB941860D8F023E43664329277C
:1036D0007F1BFE400C3D7746AF40BF1930BCA2B205
:1036E000ABB272437343801A9941220C7243130C9C
:1036F0001204801A994102000B000137001BA941F6
:10370000F9D2781E0021F0BD0C277F1BFE407746C2
:103710007F0BAF40FF19E0E700245D1C07D0144F7A
:103720007D663966FFE7FFE7FFE7FFE73C6F95B28D
:103730009EB265436643401BB141150C1E0C6543A8
:10374000664336042F0C3E432D04401BB141994281
:1037500004D202000B0020000021F0BD01D19042F4
:10376000F7D3801A994101349942F2D3F6E7000069
:10377000000000D0FFFFFFFF48404140484018B420
:103780001B4B5B68FC46019308BD04DF173A001031
:1037900018B4174B1B68FC46019308BD00DF213AA3
:1037A00000109446134A926F920809D2624618B4E8
:1037B0000F4BDB68FC46019308BD0CDFD93C0010C1
:1037C0000C4AF0B5146E556E576F166F6246FFF7D0
:1037D000EEFF084A1466556657671667F0BD18B4C1
:1037E000034B9B68FC46019308BD08DF7D3B00103E
:1037F00088050020000000D0FFB5504042405040F6
:1038000059404B40594000E0FFB5154F4C00640D46
:1038100003D0BC4204D10C0314D80020090D0905C3
:103820005C00640D03D0BC4204D11C030AD8002202
:103830001B0D1B0501264B4009D44B4003D58B4281
:1038400000D18242FFBD9942FCD19042FFBD0B43A3
:10385000DB1803431343F5D0C9434918FFBD0000EB
:10386000FF07000000B5FFF7CFFF804100BDC04655
:1038700000B5FFF7C9FF01D9002000BD012000BD40
:1038800000B5FFF7B9FF01D9002000BD012000BD40
:1038900000B5FFF7B1FF804100BD012040054A009F
:1038A000121804D85A00121801D8002070470120BD
:1038B00070470020704700000021002805D17047A4
:1038C000C1174840401AFAD0C90713B5064B1B6808
:1038D00098470CBC441CA2401005120B0349091B5D
:1038E00009051943114310BDC81100201F04000031
:1038F00010B54C00620D8023D218DB00D21A5B0594
:103900007E2A10DD9E3A13DACC17090349081943C1
:103910005242D140640001341532202A05DAD040E9
:103920000843604310BD002010BD0846604310BD31
:10393000C80FC018013810BD18B4044B5B6AFC46B0
:10394000019308BD24DF893E001000008805002097
:10395000132370B51D78012D15D010DD1C48FFF71D
:1039600079FC1C4C01008022200000F05BFB022D42
:1039700006D01948FFF766FC184B186070BD154C4F
:10398000174BA364F5E7164B124C23606360A360EA
:10399000E36023616361A361E36123626362A36205
:1039A000E36223636363A363E36323646364A364E5
:1039B000E36423656365A365E36523666366A366C5
:1039C000E36623676367A367E367A364D1E7C04641
:1039D00053440000880500204C330000C81100202B
:1039E000E539001007B5604601880A0A0230DF2A6F
:1039F000FAD1C9B2820804D3028840880004104377
:103A000000E00068014A5050039007BD880500207F
:103A10000FB403BC0CBCF0B50124E407634000E024
:103A2000F0B50C0DCF0F661E3605891B640503D358
:103A3000C943404200D30131640D03D0661CF60A2D
:103A400007D0E41B00207F00791C89078912803C85
:103A500024031D0DDF0F6E1E36059B1B6D0503D362
:103A6000DB43524200D301336D0D03D06E1CF60AC6
:103A700007D0ED1B00227F007B1C9B079B12803D23
:103A80002D032F1B661B58D4A446202E46DA203760
:103A90001400BC401D00BD40F24033412A43801851
:103AA0005941CB0F05D0C943C04300226442504165
:103AB000514162464D0D28D10D0D07D100281FD070
:103AC000241940414941013A0D0DF9D0640006D353
:103AD000013000D30131002C01D140084000013AEF
:103AE0000BD4941CE40A04D112051144DB071944D9
:103AF000F0BDD907204B194300E0D9070020F0BDE5
:103B00000029DDD1002CDBD1F0BD0132C607400811
:103B1000CD0728434908002EE1D0D9E73C2E29DA09
:103B2000203E40371400BC4000D00124F240144332
:103B30001A00BB401C43D317ACE7AC46202F08DA71
:103B400020360400B4400D00B540F8403941284308
:103B5000A5E73C2F0CDA203F40360400B44000D0EB
:103B60000124F84004430800B1400C43C117EAE7C0
:103B700010001900002494E70000F07FF0B50C0D50
:103B8000661E3605891BE60A6405640D02D0651CB5
:103B9000ED0A04D0002001210905803C2403A4463D
:103BA0001C0D671E3F05DB1BE70A6405640D02D090
:103BB000651CED0A04D0002201231B05803C240370
:103BC0007740644497B484B296B27443070C7E4342
:103BD000150C6F4380B26843361802D301200004ED
:103BE0003F183004350C00197D41844688B29AB2E2
:103BF00050430C0C62431F0C7C438EB27E439219DF
:103C000002D301263604A4191604170C361867418E
:103C100001BC81B29AB25143040C62431B0C5C4359
:103C200080B25843121802D3012000042418100453
:103C3000130C401863412D185E410020474106BC1B
:103C400088B293B258430C0C6343120C544389B2AC
:103C500051435B1802D301210904641819041A0C9A
:103C6000091862416D1856410020474118BCF902FD
:103C7000720D1143F0026A0D1043ED020A0D03D1DB
:103C80006D1940414941013B124E9B1B7600B342E6
:103C90000ED26D0007D301300026714166463543D0
:103CA00001D1400840001B05C918E4072144F0BDBC
:103CB0000BDA013306D1013004D101314F0D01D0AF
:103CC0004908F2E7E1070020F0BD01363105002088
:103CD000EBE70000FF030000F0B51C0D671E3F0579
:103CE000DB1BE70A6405640D02D0661CF60A04D0EB
:103CF000002201231B05803C2403D0252D0600262D
:103D0000F6432E661E096E66CE0FF619B4464900BC
:103D10004F0D02D07E1CF60A03D000200021403F48
:103D20003F033E1BB600B444013F7F05C91B490851
:103D30002E6F013676089C02950D25437543ED13D1
:103D40007543AD1301356D10F603761B0CB4CC0230
:103D5000450D2C43A2B2B3B25A43270C7B43350C1A
:103D60006F43A4B26C431B1902D3012424043F19EE
:103D70001C041D0CA4187D4124196D41009A91B2B8
:103D8000ACB26143170C7C432B0C5F4392B25A4395
:103D9000A41802D301221204BF182204230C5218C3
:103DA0007B41019C6C431B19520ED9010A4344010B
:103DB000A01A81B2B2B2514303145A43360C734372
:103DC00087B27743D617D21900277E4136049B1954
:103DD0001704160C7F185E417316ED18F3010026C8
:103DE00080337541A90F06D16400690AE8055B0AB2
:103DF000184309D22FE00422944480337541A90A64
:103E0000A8059B0A184326D3404149412404009A3F
:103E1000019B0D005543641B4343E41A95B286B2DF
:103E20007543170C7E43030C5F4392B25A43B61896
:103E300002D301221204BF183204330C52197B4101
:103E400052429C41002C02D40022013051414008D2
:103E5000CA071043490802B06246D7079210084BC0
:103E6000D218084B9A4203D212058918C919F0BD1D
:103E70000020002A01DC3900F0BD01331905F5E707
:103E8000FD030000FE070000002200B5203200F014
:103E900004F8080000BD000000220B150AD410B57C
:103EA000944600F031F81414013400DA0021CB17E5
:103EB000144C20470020002170476244343A0CD44F
:103EC0000C2A07DA04009140904052422032D4403C
:103ED000214310BDD843D94310BD203207D40C462E
:103EE0009440524220321141D040204310BD08007E
:103EF000C917203203D452422032104110BD18009D
:103F0000190010BDBB3E00100A0DCC0F531E1B053F
:103F1000C91A520503D3C943404200D30131520D9F
:103F200003D0531CDB0A07D0121B00206400611C65
:103F300089078912803A1203014BD21A7047000098
:103F4000FF03000051434343C9188C46110C83B250
:103F50004B4310B4040C614392B280B250436243AD
:103F60001C041B0C001910BC59411304120CC0187E
:103F70005141614470470000132310B512481C786A
:103F8000FFF768F90100012C0AD003DD80220F48F9
:103F900000F048F80E48FFF755F90E4B186010BDB9
:103FA0000A4C5422200000F03DF80B4B6365A365DA
:103FB000E36523666366A366E36623676367A367B7
:103FC000E3672362E361E5E75346000088060020CB
:103FD0004C330000C8110020DD3F001007B56046DB
:103FE00001880A0A0230DF2AFAD1C9B2820804D352
:103FF000028840880004104300E00068014A5050E5
:10400000039007BD8806002001480421014B184792
:104010001004002065320010014B1B681847000097
:1040200010040020014B5B681847000010040020BA
:10403000030010B5080011001B68984710BDC0466A
:10404000F0B546464F46D646C0B5437C80460E0086
:104050001700002B46D0002A3FDD4B1E9946244B0B
:104060000125002400209A460DE04B461B5D0D3BC8
:104070005A425341325DDBB20A2A0BD02B00013485
:1040800001359F421ADD002CEFD14346325D1B7C87
:104090000A2AF3D1002BF1D1A04204DA4346211AB7
:1040A0001B6830189847434650461B6802219847C2
:1040B000013428002B0001359F42E4DC874204DDF7
:1040C0004346391A1B6830189847F619013E337871
:1040D0000D3B5A42534142461374E0BCBA46B146C6
:1040E000A846F0BD0368110030009847F5E7C046C8
:1040F000C0710010F0B5C6460C000968060000B596
:10410000802906D04B1C23606418267180BCB846F9
:10411000F0BD0F4B1D68002D16D0231D98460D4F86
:1041200002E0ED68002D0FD02B68002BF9D03B6822
:10413000002B01D0AB42F4D1280041462268FFF7A2
:104140007FFFED68002DEFD101230021DBE7C046A2
:104150009C0D0020A00D0020F0B557464E46454668
:10416000DE461C00D023E0B51B061F68344B83B02D
:1041700006000D00180001A991469A4602F078FE4B
:104180008046002808D1019B7FB29F4204D0504650
:1041900002F07EFE012398466B1C03D1300002F032
:1041A00017FE0500002C27D1264F274B1C68002C3A
:1041B00018D04B46002B21D1244B994602E0E468ED
:1041C000002C0FD02368002BF9D04B461B68002B26
:1041D00001D0A342F3D120002A003100B847E4689F
:1041E000002CEFD14346002B25D103B0F0BCBB46D9
:1041F000B246A946A046F0BD154FD6E7134B9946E7
:104200000A239B4602E0E468002CEBD02368002BD5
:10421000F9D04B461B68002B01D0A342F3D12A00F2
:1042200031002000B8475A466B4620001A7101A998
:104230000122B847E7E7504602F002FED5E7C04644
:1042400060040020414000109C0D0020A00D0020C3
:1042500031400010F0B5CE46474680B583B06B467E
:10426000DE1CD02330701B061C681F4B804601A942
:104270001800994602F0FCFD071E20D01B4B1C685D
:10428000002C28D01A4D02E0E468002C0FD02368DF
:10429000002BF9D02B68002B01D0A342F4D12000D1
:1042A00001223100FFF7CCFEE468002CEFD1002F93
:1042B00011D1404603B0C0BCB946B046F0BD019B29
:1042C00064B29C420BD0484602F0E2FD074B012746
:1042D0001C68002CD6D1484602F0B2FDE9E7034B3A
:1042E0001C68002CCED1E4E7600400209C0D002067
:1042F000A00D002070B5040002F06AFD002301004B
:10430000050001222000FFF727FF084B1C68002C46
:1043100006D06368002B05D09847E468002CF8D1DC
:10432000280070BDE468002CF3D1F9E79C0D002053
:104330000D4A1368002B13D0834202D109E0984242
:1043400008D01A00DB68002BF9D1002900D0D0601A
:1043500070471A000029FBD1DB68D360C160F7E722
:104360000029F5D01060F3E79C0D0020F0B547461A
:10437000CE46D02380B51B061D682E4BA5B0070086
:104380000C00180003A9984602F072FD061E07D122
:10439000039B6DB29D4203D0404602F079FD013689
:1043A0008422002103A8FFF737FE23003A002248A9
:1043B00003A9FEF717FF039B0700002B14D11F4B27
:1043C0001C68002C06D06368002B0BD09847E4686B
:1043D000002CF8D1002E27D1380025B0C0BCB9463A
:1043E000B046F0BDE468ECE7144B1D689946002D1B
:1043F0001ED0134C02E0ED68002D11D02B68002B6D
:10440000F9D02368002B01D0AB42F4D1039B2800E4
:104410001A0004A90193FFF713FEED68002DEDD1FA
:104420004B4603951C68CCE7404602F009FDD3E7F4
:104430000395CFE760040020F54000109C0D00209C
:10444000A00D00200FB400B583B004A901C90191EB
:10445000FFF78CFF03B008BC04B0184710B500F09C
:1044600031F910BD7047C0460022014B1A707047E9
:10447000FE1100204B790020FF2B0BD18B79002BF4
:1044800008D1CB79012B05D1082A03D98A78024BB0
:1044900009301A707047C046FE1100200120704795
:1044A00070B5002915D115495379107909781B0287
:1044B00003430020994200D070BD5378012B0AD0ED
:1044C000022BF9D1002064220021FDF771FB0120AD
:1044D000F2E70120F0E79478D27805001202144345
:1044E000D20502D5620A93401D000548FEF7AAFED8
:1044F0007F210300214028009847C046FE1100207C
:10450000554200000123037000487047C471001039
:1045100048780B788A7800021843120410439622D8
:10452000CB7810B51B060343D200934200D010BDD8
:104530000348FEF787FE0021030008009847C046A5
:104540005542000070B5184C82B006000D002000E6
:1045500001A902F08DFC002808D1D0231B061B689E
:10456000019A9A421CD0200002F092FC002001F037
:1045700007FE002807D103256D42200002F060FCF1
:10458000280002B070BD002001F012FE0028F2D019
:104590002A003100002001F017FE051EEBD0ECE7E9
:1045A00003256D42ECE7C046D0110020F0B5DE4691
:1045B0004F464646C0B5334B82B081460D001800C9
:1045C00001A99B4602F054FC002808D1D0231B0609
:1045D0001B68019A9A424FD0584602F059FC0020BD
:1045E00001F0CEFD00283FD00024002D41DD264EF5
:1045F00011E04B460020191901F05AFE804600F0E8
:1046000049FE002001F018FEFCF7FAFB30607160F3
:104610004444AC422DDA002001F064FE2F1B02005E
:10462000B84200DD3A00002AE3D100F033FE00205A
:1046300001F002FE002001F0A3FD002819D00020A7
:1046400001F050FE0028E4D1FCF7DAFB3268736811
:104650000F00002184460D4812184B419F4208D894
:10466000D7D19445D5D904E000200021064B18602D
:104670005960584602F0E4FB02B0E0BCBB46B146CC
:10468000A846F0BDD01100208005002020A1070021
:104690001F2010B5FDF7B0F8FA200021800010BDF2
:1046A00010B5074C0021200002F0E2FB002800D1E9
:1046B00010BD00F0EFFD200002F0C2FBF8E7C0469D
:1046C000D011002070B51E4B84B01B7801F0F2FFB2
:1046D0001F201C49FDF7A0F801211F20FDF77AF8E3
:1046E0001948FCF783FCFCF779F90600FCF788FB16
:1046F000FA2204000D000023920012196B41994226
:1047000014D811D001210291002101910F493000EC
:104710000091FCF767F90400631E9C41E4B2002895
:1047200008D1200004B070BD9042EBD90122524262
:10473000D317E7E701210648FFF7FAFDF1E7C04686
:10474000D0730010A1460010D01100209146001037
:1047500020040020004870477C7200100048704719
:104760002872001070B5040017480378002B21D080
:10477000002C06D1C1241548154BA40043800480A9
:1047800070BD052C1DD8134B1048A400E558811CA2
:10479000002304E001330A800231132B0ED0EA5CBF
:1047A000DCB2002AF6D1C0230134E4B264009B00DD
:1047B0001C43E4E7112102F017FAD9E7CA24A40048
:1047C000DDE70020DCE7C046E8110020740D002082
:1047D0000904000090720010F0B598235746DE4699
:1047E0004E464546644AE0B5D758883B1C0083B026
:1047F0003C403B4227D180256D02FB030DD50122B1
:1048000023215E4B00205A54DA705D4901F076FA9C
:1048100080222C005B4B92021A6580235B011F42B1
:1048200060D18023DB011F4252D180231B021F4233
:1048300043D1BC4200D099E003B0F0BCBB46B246C5
:10484000A946A046F0BD936D002498460126002B92
:1048500024D04C4B9B4601239946484B9A4604E092
:1048600001347600E4B2202C18D043463342F7D00E
:104870005B469E654B4665086D00A343ED186D01D0
:104880005544280000F08EFB00280AD1434601342D
:10489000B34398467600E4B2002BE4D110243A4D9D
:1048A000ABE74B46AA8AA97800200093002301F0C9
:1048B0004DFA280000F0B2FAE8E7012205210020B5
:1048C0001C4301F061F980222E4B12011A65B0E7FA
:1048D0000122042100201C4301F056F91022294B2B
:1048E0001A65A2E71C430023234A00211360244ACF
:1048F00026489360D360264A9360D360254A93602C
:10490000D360254A9360D360244A9360D360244ADD
:104910009360D360234A9360D360234A9360D3604B
:10492000224A9360D360224A9360D360214A936005
:10493000D360214A9360D360204A9360D360204AB9
:104940009360D3601F4A9360D360F0229200FFF718
:1049500063FB1D4B1D4A00211A600020012201F05B
:10496000A3F98022074B12031A655AE72100184861
:104970007940FCF7B3FDC04600001150A40D0020A3
:10498000000010500030115010000100E40D002014
:104990000800105010001050180010502000105047
:1049A00028001050300010503800105040001050B7
:1049B0004800105050001050580010506000105027
:1049C0006800105070001050AC1100208001105091
:1049D000A872001010B501210520FCF7FBFE10BDE8
:1049E00010B500220021024800F040FA10BDC04678
:1049F000C40D00208022024B5202DA647047C04688
:104A000000201150F0B5C64600B5060000F0E0F9F0
:104A10000C23354D0520AB673449FCF7FDFE4023E0
:104A20009846334C402200212000FFF7F5FA434618
:104A30000127A383212100232E4A6770A2601360FF
:104A400063545F3161844146A187023963542A4A25
:104A50002A496360E260A1620B60E262284A6362F5
:104A60009360D360274A20009360D360264A0021D8
:104A70009360D360254A40309360D360244A9360AA
:104A8000D360244A9360D360234A9360D360234A5F
:104A90009360D360224A9360D360224A9360D360CC
:104AA000214A9360D360214A9360D360204A936087
:104AB000D360204A9360D3601F4A9360D360F02292
:104AC0009200FFF7A9FA1D4B1D4A30001A6080239F
:104AD0009B052F64EB6490231A4AEA50FFF78AFF84
:104AE00080BCB846F0BDC04600001150D947001048
:104AF000A40D0020840010500001105080001050C0
:104B000000001050080010501000105018001050F5
:104B10002000105028001050300010503800105065
:104B200040001050480010505000105058001050D5
:104B3000600010506800105070001050AC11002040
:104B40008001105010D001000B785B0602D14B7829
:104B5000052B00D070478A78014B1A60FAE7C046EF
:104B600000001150F0B5C64600B54B790C791B0218
:104B700088782343CC787F21A4070140C509A20F80
:104B80004F001400324E7A195201B2189070012071
:104B90006840507000205B055B0DD0709383947764
:104BA0008046CA00012D33D02A48844688016244D9
:104BB0008446B4446046826040461060002933D089
:104BC000254AC90090466246414451603F223F3326
:104BD0009343022C00D15B0020487A1901685201EE
:104BE000B218D1601E4ACB18036051405340802256
:104BF00088465201934228D84346A4061C4380238A
:104C00007F197F011B06F6191C4373681C6011E0B5
:104C100014488446880162448446B44460468262F3
:104C200040461060002909D100236D017619736098
:104C30000D4BF360012080BCB846F0BD084AC900A6
:104C40009046624641445162C0E7FCF75FFCD3E7FF
:104C5000A40D00208400105004001050AC1100205E
:104C600000001050800010500001105000231C4A1A
:104C700010B59360D3601B4A00219360D3601A4A39
:104C80001A489360D3601A4A9360D360194A9360BC
:104C9000D360194A9360D360184A9360D360184A6E
:104CA0009360D360174A9360D360174A9360D360D0
:104CB000164A9360D360164A9360D360154A936096
:104CC000D360154A9360D360144A9360D360F02296
:104CD0009200FFF7A1F9124B124A1A6010BDC046AC
:104CE000000010500800105010001050E40D00207B
:104CF00018001050200010502800105030001050A4
:104D00003800105040001050480010505000105013
:104D10005800105060001050680010507000105083
:104D2000AC1100208001105010B57F200C002040F5
:104D30004000E409110000191A00034B4001C0189B
:104D400000F094F8012010BDA40D00207F22130074
:104D500010B50B400A420BD0C909802258004018F8
:104D60000649400140181201002100F05DF810BD15
:104D700002220348C909521A8266EEE7A40D0020F8
:104D8000002011507F22100010B508400A4200D1C7
:104D900010BD0023C909400040180449400108180B
:104DA00000220349C37000F03FF8F1E7A40D002092
:104DB000FFF7FFFF7F21C309034A9B00014010B5A5
:104DC0009A580248FCF78AFB34040020BC72001099
:104DD00080220D4B520410B51A600C4B0C491A601E
:104DE00010008B689843FBD10A4C9C2200212000C4
:104DF000FFF712F98022002152010748FFF70CF952
:104E00000923636710BDC04600E0004000F0004089
:104E100000C0004000001150000010500023037437
:104E2000438283828361704710B58368002901D073
:104E30001C682140002A11D08024E4001143224242
:104E40000CD01A6822420BD1074A0A401A60FFE7C9
:104E5000FFE7FFE7FFE7FFE7FFE78368196010BDA3
:104E60008078FFF7A7FFC046FFFBFFFFF0B5C646FF
:104E7000002300B5838201330374436804001E6875
:104E8000838B81611F1C934200D9171C8025BFB200
:104E9000D21B93B2E278ED0063823D43002A02D038
:104EA0009025AD013D4301204240E2706278002A26
:104EB00051D0002B1DD1A023DB011D43354B1B6CB2
:104EC000354B33408026B6051E436368A2681E60DA
:104ED00013685B055AD4314B2B401360FFE7FFE7A3
:104EE000FFE7FFE7FFE7FFE7A3681D6080BCB84668
:104EF000F0BD802252011543264A126C920703D45A
:104F0000A278D209012ADBD1A28B111C9A4200D9C6
:104F1000191C80278AB2FF009B1A90461743E2783B
:104F20009BB26382002A03D090274146BF010F4302
:104F300001214A40E2706278002A19D0002B02D188
:104F40008023DB011F43164B3F043340A026F605A8
:104F50003D431E43B9E73A00E068FFF763F8A369F1
:104F60009C46802367441B021D43A761638AA0E718
:104F7000E0684246A1694030FFF754F8A369434412
:104F8000A36180231B021F43638AD7E7A078FFF742
:104F900011FFC04600001150FFFFFFAFFFFBFFFFF6
:104FA000FFFFFFDFF0B5C64600B5067C0400002E0B
:104FB00000D1D3E083681A681D684378AD05AD0D54
:104FC000002B51D1838AEB189BB28382A18B8D4237
:104FD00007D20023638263681B68300080BCB84638
:104FE000F0BD62681268520002D58D4200D175E0B2
:104FF000638A002BF1D062681F1C16688B4200D9AF
:105000000F1C8025BFB2DB1BE2789BB2ED006382F0
:105010003D43002A02D09025AD013D4301214A4085
:10502000E2706278002A68D0002B2AD1A023DB012D
:105030001D43514B1B6C514B33408026B6051E431C
:105040006368A2681E6013685B0500D590E04C4B56
:105050002B401360FFE7FFE7FFE7FFE7FFE7FFE70E
:10506000A36800261D60B8E72A00C1688069FEF7C2
:10507000D9FFA38AA269EB189BB25219A382A2613D
:10508000A4E78022520115433B4A126C920703D4D5
:10509000A278D209012ACED1A28B111C9A423FD804
:1050A00080278AB2FF009B1A90461743E2789BB292
:1050B0006382002A2FD101214A40E2706278002ADF
:1050C0003ED0002B02D18023DB011F432D4B3F0438
:1050D0003340A026F6053D431E43B1E7A26815689C
:1050E0006278AD01AD0D002A1CD1EB18A3828D4270
:1050F00000D37DE7002363826FE73A00A169E0688F
:10510000FEF790FFA3699C46802367441B021D4362
:10511000A761638A88E790274146BF010F43CAE72A
:10512000191CBDE7E1682A004031A069FEF77AFF4B
:10513000A38AA18BEB18A382A3695B19A361D6E7AD
:10514000E0684246A1694030FEF76CFFA369434422
:10515000A36180231B021F43638AB2E77F22817809
:105160000948CB091140094A9B009A58FCF7B6F947
:10517000A078FFF71FFEC04600001150FFFFFFAFF1
:10518000FFFBFFFFFFFFFFDFDC7200103404002095
:10519000024B5878431E9841C0B27047DC0A002089
:1051A000024B18784007C00F7047C046DC0A002049
:1051B000014B18787047C046FA110020F8B54746F1
:1051C000CE4680B5294F05003B78002B04D0012046
:1051D000C0BCB946B046F8BD532200212448FEF7B2
:1051E0001BFF244C2000FBF701FF234B1C60234CCA
:1051F00020001C30FBF716FF200001F0A9FC204B1B
:10520000204E1C60204B9846002B04D03000FFF746
:1052100079F91E4B1860424600243378002A1DD0CD
:105220001B4A9046194A91469C4210D31BD14346D3
:10523000984701343378E4B2A342F5D22800FFF74F
:10524000E1FB2800FFF7C6FB01233B70BFE74A469E
:10525000630012681B19DB009B58E9E701F04EF868
:105260003378002BEAD000231B68FFDEFA11002000
:10527000DC0A0020940A0020300B00203C040020AF
:10528000340B0020F911002005450010A407002070
:10529000FD620010F0B5DE4657464E464546E0B585
:1052A0008BB001F00DFA002800D144E1C24BC34E8F
:1052B0009B4607AC3568EA69EFF3108172B6136854
:1052C000002BFCD0BFF35F8F29622800210001F082
:1052D000B3FAEA692B6ABFF35F8F0021116083F391
:1052E0001088002800D126E16378082BE2D85A46BE
:1052F0009B00D3589F466368002BDBD0A06898477B
:10530000D8E77F222179AE4B0A405500C8095B19C6
:105310001B18180001273030C578BD43C570C5780B
:105320000337BD43C570002A00D10BE1A54ADB7CE1
:10533000002A06D0A44A1278934200D291E19B1A27
:10534000DBB2002B00D0F6E0A04D62792078A36894
:10535000A847AFE701229A4F01213B78042013436D
:105360003B703323FA5C8A43FA54FA5C8243FA5462
:105370000133FA5C8A43FA54FA5C8243FA54237884
:1053800000209A4600F06AFE602223791A40602AC3
:105390000DD0402A00D1F2E0DB06DB0E012B00D15C
:1053A0006AE1022B00D121E1002B00D1F6E0207848
:1053B0000021FFF7CBFC80212078FFF7C7FC79E7BD
:1053C0007F4B1B78DB0700D474E7814B002B00D1A7
:1053D00070E700E000BF6DE7794B1A78D20700D480
:1053E00068E77C4A002A00D164E718780007C00FFC
:1053F00000E000BF5EE7744D724A00272B78002A58
:1054000000D1B6E0744A90469F4208D39F4200D034
:10541000B2E00137FFB29F4200D94BE7F6D24146D6
:1054200009687A008C46D219D20062445269002A77
:10543000EFD02078904701372B78FFB29F42E3D915
:1054400038E72378604D5F4A984600272B78002A7A
:1054500000D186E0614A91465F4A92462A0045465D
:105460009046BB425ED800D078E04B462800984773
:10547000434601371B78FFB2BB42F2D2504D532254
:1054800000212800FEF7C8FD1022FF21E81CFEF7CE
:10549000C3FD28002022FF211330FEF7BDFD00F0E0
:1054A000D3FD4F4B002B00D104E700E000BF01E724
:1054B0002378454D434A984600272B78002A47D049
:1054C000464A9146444A92462A00454690469F42A3
:1054D0001FD343D14B4628009847434601371B78DA
:1054E000FFB2BB42F3D2364D532200212800FEF713
:1054F00093FD1022FF21E81CFEF78EFD28002022DC
:10550000FF211330FEF788FD00F09EFD2379AB707C
:10551000D0E6524612687B009446DB19DB006344F8
:105520005B68D8E7524612687B009446DB19DB00C3
:1055300063445B689AE70BB0F0BCBB46B246A94631
:10554000A046F0BD62792078A36800F09BFDB1E62B
:10555000404600F011FF2B78002BC4D000235B687D
:10556000FFDE404600F008FF2B78002B00D185E7D6
:10557000F4E7002B00D19DE600235B69FFDE1948AC
:10558000002800D113E700F069FD0021504608AA69
:1055900000E000BF002800D08CE608E7202A00D1F8
:1055A0009FE0002A00D002E76379092B00D9FEE6CC
:1055B0000D4A9B00D3589F4610730010340B0020F7
:1055C000DC0A002005450010F91100206D6500106F
:1055D0000000000000000000A40700207963001014
:1055E0000000000000000000347300107023217AD6
:1055F0000B4200D0DBE60F330B405B00F818CD09FF
:105600000093C14B4019C07C002B06D0BF4B1B78C8
:10561000984200D288E0C01AC0B200287ED1002A89
:1056200000D015E1BA4B01936379984602234246B4
:1056300099469A43012A00D10EE14346002B00D03F
:10564000B5E6009B06AAFB185D193035EB780232EF
:105650009B07DB0F13805046022308A900F096FC3D
:1056600028E65A00D318AB4ADB001268D318002B87
:1056700000D160E71D6968E6237A0F2B00D996E612
:10568000A14AFB18DB78002A05D0A04A1278934281
:1056900064D39B1ADBB2002B00D088E69E489C4D59
:1056A00000F0DCFC00215046EB6808AA984700286F
:1056B00000D0FFE56022150023791D401A4200D07A
:1056C00075E663790A3B012B00D970E600F0C6FC51
:1056D00063790A2B00D1EEE0504608A900F03EFCA9
:1056E000E8E5237A0F2B00D961E6874AFB18DB78BF
:1056F000002A06D0854A1278934200D2D0E09B1A45
:10570000DBB2002B00D052E68348814D00F0A6FCAE
:1057100000215046EB6808AA98473BE7002A00D0D2
:1057200045E6002301937FE743009C46794B6044A4
:105730001B68C0009C46030063440193002A00D10B
:1057400072E7002B00D132E6D86800F087FC019B9D
:1057500000215046DB6808AA98471BE76D4A5D00A8
:10576000EB181568DB00ED18002D00D11FE6E86886
:1057700096E7E388012B00D019E608223B785046D3
:10578000934308A93B7000F0E9FB93E502203978C8
:1057900006AB9A1C8B068908DB0F01400B4359E7C7
:1057A000A37901931A007B789A4207D07B78002B6B
:1057B00000D01EE1019B002B00D0B3E0019B5046BE
:1057C00008A97B7000F0CAFB74E57B7806AA023258
:1057D00013705046012308A900F0D8FB6AE5E08861
:1057E000030AC0B20F2B00D9E1E54C499A008A5850
:1057F000974608A800F038FC5046A179FFF7F0F86A
:1058000002223B7813433B7054E5E388012B00D020
:10581000CDE508223B785046134308A93B7000F0C1
:105820009DFB47E5022B00D197E13D4B002B00D1BA
:10583000BDE500E000BF0200002A00D1B7E5D37843
:1058400091781B020B43504608A900F09FFBA1E68C
:105850002F4B3148019378E7E288002A09D143466B
:10586000012B3DD0009BFB185D193035EB789B0771
:105870002AD5019D002D00D11CE5EB68180000938E
:1058800000F0ECFBEB68002108AA50469847002086
:1058900000F0E4FB3423FB5CDB0700D50AE51BE7E3
:1058A0001C4A5D00EB181568DB00ED18002D00D1D7
:1058B0007DE5E8682AE706AB9A1C5046012308A953
:1058C000157000F063FBF5E45046FFF73FFA022243
:1058D000EB7813430122EB70EB781343EB70C8E7CE
:1058E000009BFB185D193035EB789B07C1D55046FE
:1058F000FFF748FA4A46EB7893434246EB70EB7861
:105900009343EB70B5E7C04605450010F911002040
:105910009C730010A4070020896400105C730010C1
:1059200000000000581EC0B2FEF718FF002800D18A
:105930003DE543780493022B00D038E50121C3797B
:105940009A115B110A400B4052011B0113433A7834
:105950002F318A4313433B7009239946C3788278D9
:105960001B021343C31881440393039B4B4500D888
:10597000ECE04B4601225B7800920B2B07D14B46A3
:10598000DB7800934B461B7899444B465B78042B9D
:1059900000D00CE54A46039B00259B1A9BB202935C
:1059A000704A714B1B78002A16D162E0AB4272D16B
:1059B0006E4A6F4B904649465046029A9847844635
:1059C000082802D9029A82426AD2674B01351B78B5
:1059D000EDB2AB4200D2EAE4AB42E7D9654A6B00D4
:1059E00012685B199046DB009844434605929B6819
:1059F000E1E75046FFF73AF9BB785B4D594A00930F
:105A000000212B78002A2DD05A4A90462A000D00FA
:105A100091469D421DD300D0A0E5574B5046984774
:105A20004B4601351B78EDB2AB42F2D25322002136
:105A30003800FEF7F1FA1022FF21F81CFEF7ECFA0D
:105A400038002022FF211330FEF7E6FA009BBB70DE
:105A5000B0E6424612686B0094465B19DB00634473
:105A60005B68DBE7504600F087FC2B78002BDDD02D
:105A700074E5029B49461A005046984600F092FC95
:105A80008446082802D94246824207D2364B1B7808
:105A9000002B00D18BE400239B68FFDE334B98463C
:105AA000009B012B4AD0009B002B10D04B469978CD
:105AB000002305E0D5700133009ADBB2934206D291
:105AC000CA18D2B2BA18D078FF28F3D06FE43800E1
:105AD000E0462B0049466246133000F031FE224B6F
